:020000040800F2
:1000000000500020BD0B0008510A0008590A0008E2
:10001000610A0008690A0008710A0008000000006F
:10002000000000000000000000000000790A000845
:10003000850A000800000000910A00089D0A0008D7
:10004000050C0008050C0008050C0008050C00084C
:10005000050C0008050C0008050C0008050C00083C
:10006000050C0008050C0008050C0008050C00082C
:10007000050C0008050C0008050C0008050C00081C
:10008000050C0008050C0008050C0008050C00080C
:10009000050C0008050C0008050C0008050C0008FC
:1000A000050C0008050C0008050C0008050C0008EC
:1000B000050C0008050C0008050C0008050C0008DC
:1000C000050C0008050C0008050C0008050C0008CC
:1000D000050C0008050C0008050C0008050C0008BC
:1000E000050C0008050C0008050C000800000000C5
:1000F0000000000000000000000000000000000000
:0C01000000000000000000005FF808F1A3
:10010C0010B5054C237833B9044B13B10448AFF345
:10011C0000800123237010BD680000200000000047
:10012C005436000808B5034B1BB103490348AFF321
:10013C00008008BD000000006C0000205436000850
:10014C0080B500AF00221021024801F045F800BF35
:10015C0080BD00BF0008014080B500AF0122102116
:10016C00024801F039F800BF80BD00BF0008014013
:10017C0080B586B002AF0346FB71FF23FB7307F11A
:10018C000F02F91D4FF0FF3300930123034801F0D8
:10019C002DFE00BF1037BD4680BD00BF840000207F
:1001AC0080B582B000AF78607B681B0CDBB2184660
:1001BC00FFF7DEFF7B681B0ADBB21846FFF7D8FFA0
:1001CC007B68DBB21846FFF7D3FF00BF0837BD468C
:1001DC0080BD000080B584B002AFFF23FB71BA1D57
:1001EC00F91D4FF0FF3300930123044801F0FEFD8D
:1001FC00BB7918460837BD4680BD00BF840000207F
:10020C0080B500AFFFF79CFF0620FFF7B1FFFFF7AB
:10021C00A3FF00BF80BD80B582B000AFFFF790FF99
:10022C000520FFF7A5FFFFF7D5FF0346FB71FFF78E
:10023C0093FFFB7903F00103002BEFD1FB791846F8
:10024C000837BD4680BD80B500AFFFF785FFFFF7CF
:10025C00E2FF00BF80BD80B582B000AF00237B60A1
:10026C00FFF76EFF9F20FFF783FFFFF7B3FF0346F7
:10027C001B047A6813437B60FFF7ACFF03461B0239
:10028C007A6813437B60FFF7A5FF03461A467B6829
:10029C0013437B60FFF760FF7B6818460837BD4649
:1002AC0080BD000080B588B002AFF860B96013461D
:1002BC00FB80FF23FB75FFF743FF0320FFF758FF7D
:1002CC00F868FFF76DFFFB8807F117014FF0FF325D
:1002DC000092BA68044801F089FDFFF73DFF00BFAA
:1002EC001837BD4680BD00BF8400002080B584B0A7
:1002FC0000AFF860B9601346FB80FB88B3F5807FD4
:10030C0002D94FF48073FB80FFF785FFFFF778FF6E
:10031C00FFF781FFFFF714FF0220FFF729FFF868B2
:10032C00FFF73EFFFA884FF0FF33B968054801F03C
:10033C0019FCFFF711FFFFF76EFF00BF1037BD462A
:10034C0080BD00BF8400002080B582B000AF786013
:10035C00FFF756FFFFF75FFFFFF7F2FE2020FFF7D6
:10036C0007FF7868FFF71CFFFFF7F6FEFFF753FF58
:10037C0000BF0837BD4680BD80B586B000AFF860C1
:10038C00B9607A60FB68012B02D0FB68022B11D19B
:10039C007B689AB24FF0FF33B968094801F0D9FF76
:1003AC000346FB75FB7D002B01D17B6804E04FF00D
:1003BC00FF3301E04FF0FF3318461837BD4680BDC0
:1003CC00DC000020B0B5E8B000AF00F017FC00F086
:1003DC0065F900F009FA00F0A7F900F0DBF99A488A
:1003EC0002F0B6FAFFF72FFFFFF735FFC7F89401BD
:1003FC00D7F89411954802F043FA954802F0A8FA00
:10040C00944B07F5A8741D460FCD0FC495E80F004B
:10041C0084E80F0007F5B87320220021184602F07B
:10042C0087FB4FF47A7000F04BFC8B4802F090FA8B
:10043C00874802F08DFA0020FFF786FF874802F00C
:10044C0087FA834802F084FA4FF47A7000F038FC93
:10045C00834802F07DFA7E4802F07AFA07F5A87319
:10046C00402219460020FFF741FF7E4802F070FA47
:10047C00774802F06DFA4FF47A7000F021FC7A485C
:10048C0002F066FA724802F063FA07F588734022AC
:10049C0019460020FFF706FF744802F059FA6C4821
:1004AC0002F056FA4FF47A7000F00AFC07F58871E6
:1004BC0007F5A8734022184602F02AFB0346002BCE
:1004CC000FD16B4802F044FA614802F041FA07F58B
:1004DC0088731946674802F0D3F95D4802F038FA80
:1004EC000EE0654802F034FA594802F031FA07F58B
:1004FC0088731946614802F0C3F9554802F028FA8E
:10050C000023A7F89E310EE0B7F89E31B7F89E2174
:10051C00D1B207F5D072A2F5C872D154B7F89E319A
:10052C000133A7F89E31B7F89E31FF2BECD94A481E
:10053C0002F00EFA464802F00BFA4FF48050FFF727
:10054C0003FF4F4802F004FA414802F001FA4FF45D
:10055C007A7000F0B5FB424802F0FAF93C4802F020
:10056C00F7F907F110034FF4807219464FF48050DD
:10057C00FFF7BCFE3B4802F0EBF9354802F0E8F916
:10058C004FF47A7000F09CFB374802F0E1F93048E8
:10059C0002F0DEF93B46102219464FF48050FFF76B
:1005AC0081FE324802F0D4F9294802F0D1F94FF417
:1005BC007A7000F085FB002387F89D3112E097F8E4
:1005CC009D3107F5D072A2F5D072D35C19462D4837
:1005DC0002F056F91E4802F0BBF997F89D31013331
:1005EC0087F89D3197F89D310F2BE8D9264802F0FA
:1005FC00AFF9174802F0ACF90023C7F890314FF46B
:10060C007A73C7F89831214B1B68C7F89031D7F82B
:10061C009021D7F898319A42F5D34FF400511C48E9
:10062C0000F0F2FDD7F890311A4AA2FB03239B0984
:10063C001946194802F024F9D7F8983103F57A7362
:10064C00C7F89831DFE700BF6C3600088036000829
:10065C009C360008C8370008A0360008B4360008DD
:10066C00D4360008EC3600080437000820370008A0
:10067C00343700084C3700085C3700087437000822
:10068C0088370008A8370008AC370008280100207C
:10069C0000100140D34D6210B037000880B590B007
:1006AC0000AF07F1180328220021184602F040FA87
:1006BC003B1D00221A605A609A60DA601A610123AD
:1006CC00BB614FF48033FB6100233B620123BB62AF
:1006DC0002237B634FF48033BB634FF4E013FB6363
:1006EC0007F11803184600F0A9FD0346002B01D0B2
:1006FC0000F0DAF80F237B600223BB608023FB60E1
:10070C004FF480633B6100237B613B1D0221184643
:10071C0001F016F80346002B01D000F0C5F800BF1D
:10072C004037BD4680BD000080B500AF174B184A5E
:10073C001A60164B4FF482725A60144B00229A6066
:10074C00124B0022DA60114B00221A610F4B00226F
:10075C005A610E4B4FF400729A610C4B0822DA610D
:10076C000A4B00221A62094B00225A62074B0022E4
:10077C009A62064B0A22DA62044801F06FF90346CA
:10078C00002B01D000F090F800BF80BD8400002049
:10079C000030014080B500AF114B124A1A60104B6B
:1007AC004FF4E1325A600E4B00229A600C4B00223F
:1007BC00DA600B4B00221A61094B0C225A61084B70
:1007CC0000229A61064B0022DA61054801F071FDA6
:1007DC000346002B01D000F067F800BF80BD00BFBE
:1007EC00DC0000200038014080B588B000AF07F174
:1007FC00100300221A605A609A60DA60274B9B69DA
:10080C00264A43F010039361244B9B6903F01003B9
:10081C00FB60FB68214B9B69204A43F020039361EA
:10082C001E4B9B6903F02003BB60BB681B4B9B6991
:10083C001A4A43F004039361184B9B6903F00403B9
:10084C007B607B6801224FF40051154800F0C4FC1A
:10085C0000221021134800F0BFFC4FF400533B6101
:10086C0011237B610023BB610223FB6107F11003A1
:10087C0019460B4800F02CFB10233B6101237B61D4
:10088C000023BB610223FB6107F1100319460548E5
:10089C0000F01EFB00BF2037BD4680BD001002409B
:1008AC00001001400008014080B400AF72B600BFD8
:1008BC0000BFFDE780B485B000AF154B9B69144AAF
:1008CC0043F001039361124B9B6903F00103BB607E
:1008DC00BB680F4BDB690E4A43F08053D3610C4B62
:1008EC00DB6903F080537B607B680A4B5B68FB60C1
:1008FC00FB6823F0E063FB60FB6843F08063FB6004
:10090C00044AFB68536000BF1437BD4680BC704777
:10091C00001002400000014080B588B000AF786044
:10092C0007F1100300221A605A609A60DA607B6843
:10093C001B681B4A93422FD11A4B9B69194A43F4EB
:10094C0080539361174B9B6903F48053FB60FB68E6
:10095C00144B9B69134A43F004039361114B9B693D
:10096C0003F00403BB60BB68A0233B6102237B61E3
:10097C000323FB6107F1100319460B4800F0A8FA9A
:10098C0040233B6100237B610023BB6107F1100313
:10099C001946054800F09CFA00BF2037BD4680BDC3
:1009AC0000300140001002400008014080B588B0C2
:1009BC0000AF786007F1100300221A605A609A6049
:1009CC00DA607B681B681C4A934231D11B4B9B69D4
:1009DC001A4A43F480439361184B9B6903F4804398
:1009EC00FB60FB68154B9B69144A43F0040393614D
:1009FC00124B9B6903F00403BB60BB684FF400739C
:100A0C003B6102237B610323FB6107F11003194651
:100A1C000B4800F05DFA4FF480633B6100237B616F
:100A2C000023BB6107F110031946054800F050FA8A
:100A3C0000BF2037BD4680BD003801400010024089
:100A4C000008014080B400AF00BFFDE780B400AFE8
:100A5C0000BFFDE780B400AF00BFFDE780B400AF7E
:100A6C0000BFFDE780B400AF00BFFDE780B400AF6E
:100A7C0000BFBD4680BC704780B400AF00BFBD4610
:100A8C0080BC704780B400AF00BFBD4680BC7047CF
:100A9C0080B500AF00F0F8F800BF80BD80B586B01F
:100AAC0000AFF860B9607A6000237B610AE0AFF3B5
:100ABC0000800146BB685A1CBA60CAB21A707B69C6
:100ACC0001337B617A697B689A42F0DB7B6818465C
:100ADC001837BD4680BD80B483B000AF78604FF04E
:100AEC00FF3318460C37BD4680BC704780B483B0CA
:100AFC0000AF786039603B684FF400525A600023B5
:100B0C0018460C37BD4680BC704780B483B000AF2C
:100B1C007860012318460C37BD4680BC704780B402
:100B2C0085B000AFF860B9607A60002318461437BE
:100B3C00BD4680BC7047000080B586B000AF7860C1
:100B4C00144A154BD31A7B617B693B61134B1B68B1
:100B5C00002B02D1114B124A1A60104B1A687B6899
:100B6C0013443A699A4207D202F030F803460C2239
:100B7C001A604FF0FF3309E0084B1B68FB60074B12
:100B8C001A687B681344054A1360FB6818461837CB
:100B9C00BD4680BD00500020000400002401002050
:100BAC007802002080B400AF00BFBD4680BC704707
:100BBC00FFF7F8FF0B480C490C4A002302E0D4580D
:100BCC00C4500433C4188C42F9D3094A094C00238D
:100BDC0001E013600432A242FBD301F0FDFFFFF7EA
:100BEC00F1FB7047000000206800002070380008FE
:100BFC006800002078020020FEE7000080B500AFFE
:100C0C00084B1B68074A43F010031360032000F0E5
:100C1C002BF90F2000F008F8FFF74CFE00231846C4
:100C2C0080BD00BF0020024080B582B000AF78606C
:100C3C00124B1A68124B1B7819464FF47A73B3FB9C
:100C4C00F1F3B2FBF3F3184600F035F90346002B31
:100C5C0001D001230EE07B680F2B0AD800227968A3
:100C6C004FF0FF3000F00BF9064A7B68136000234D
:100C7C0000E0012318460837BD4680BD0000002067
:100C8C00080000200400002080B400AF054B1B7846
:100C9C001A46054B1B681344034A136000BFBD463C
:100CAC0080BC7047080000202801002080B400AFF1
:100CBC00024B1B681846BD4680BC704728010020BB
:100CCC0080B584B000AF7860FFF7F0FFB8607B6848
:100CDC00FB60FB68B3F1FF3F05D00A4B1B781A464B
:100CEC00FB681344FB6000BFFFF7E0FF0246BB68E4
:100CFC00D31AFA689A42F7D800BF00BF1037BD4626
:100D0C0080BD00BF0800002080B485B000AF7860C3
:100D1C007B6803F00703FB600C4BDB68BB60BA68B5
:100D2C004FF6FF031340BB60FB681A02BB6813430A
:100D3C0043F0BF6343F40033BB60044ABB68D36029
:100D4C0000BF1437BD4680BC704700BF00ED00E00B
:100D5C0080B400AF044BDB681B0A03F00703184692
:100D6C00BD4680BC704700BF00ED00E080B483B08E
:100D7C0000AF03463960FB7197F90730002B0ADB93
:100D8C003B68DAB20C4997F907301201D2B20B4426
:100D9C0083F800230AE03B68DAB20849FB7903F0D8
:100DAC000F03043B1201D2B20B441A7600BF0C376E
:100DBC00BD4680BC704700BF00E100E000ED00E0E4
:100DCC0080B489B000AFF860B9607A60FB6803F05A
:100DDC000703FB61FB69C3F10703042B28BF042342
:100DEC00BB61FB690433062B02D9FB69033B00E0B2
:100DFC0000237B614FF0FF32BB6902FA03F3DA4345
:100E0C00BB681A407B699A404FF0FF317B6901FA4D
:100E1C0003F3D9437B680B40134318462437BD4674
:100E2C0080BC704780B582B000AF78607B68013BB6
:100E3C00B3F1807F01D301230FE00A4A7B68013BA9
:100E4C0053600F214FF0FF30FFF790FF054B00224E
:100E5C009A60044B07221A60002318460837BD46D7
:100E6C0080BD00BF10E000E080B582B000AF7860BC
:100E7C007868FFF749FF00BF0837BD4680BD80B5D5
:100E8C0086B000AF0346B9607A60FB7300237B61C8
:100E9C00FFF75EFF78617A68B9687869FFF790FFB1
:100EAC00024697F90F3011461846FFF75FFF00BF57
:100EBC001837BD4680BD80B582B000AF78607868C9
:100ECC00FFF7B0FF034618460837BD4680BD00004B
:100EDC0080B48BB000AF7860396000237B62002354
:100EEC003B6269E101227B6A02FA03F3FB613B6816
:100EFC001B68FA691340BB61BA69FB699A4240F0FE
:100F0C0058813B685B689A4A93425ED0984A9342F8
:100F1C0075D8984A934258D0964A93426FD8964ABD
:100F2C00934252D0944A934269D8944A93424CD0FB
:100F3C00924A934263D8924A934246D0904A934243
:100F4C005DD8122B2AD8122B59D801A252F823F0B3
:100F5C00D70F0008B10F0008C30F000805100008D8
:100F6C000B1000080B1000080B1000080B100008E9
:100F7C000B1000080B1000080B1000080B100008D9
:100F8C000B1000080B1000080B1000080B100008C9
:100F9C000B100008B90F0008CD0F0008794A9342D6
:100FAC0013D02CE03B68DB683B6229E03B68DB68D4
:100FBC0004333B6224E03B68DB6808333B621FE090
:100FCC003B68DB680C333B621AE03B689B68002B88
:100FDC0002D104233B6213E03B689B68012B05D1D3
:100FEC0008233B627B68FA691A6109E008233B62BB
:100FFC007B68FA695A6103E000233B6200E000BFA2
:10100C00BB69FF2B01D87B6801E07B6804337B61F3
:10101C00BB69FF2B02D87B6A9B0002E07B6A083B12
:10102C009B003B617B691A680F213B6901FA03F352
:10103C00DB431A40396A3B6901FA03F31A437B69B3
:10104C001A603B685B6803F08053002B00F0B180A2
:10105C004D4B9B694C4A43F0010393614A4B9B698E
:10106C0003F00103BB60BB68484A7B6A9B080233F0
:10107C0052F82330FB607B6A03F003039B000F22C2
:10108C0002FA03F3DB43FA681340FB607B68404AC7
:10109C00934213D07B683F4A93420DD07B683E4A03
:1010AC00934207D07B683D4A934201D1032306E06B
:1010BC00042304E0022302E0012300E000237A6A07
:1010CC0002F0030292009340FA681343FB602F492D
:1010DC007B6A9B080233FA6841F823203B685B6803
:1010EC0003F48013002B06D02D4B9A682C49BB6956
:1010FC0013438B6006E02A4B9A68BB69DB43284993
:10110C0013408B603B685B6803F40013002B06D024
:10111C00234BDA682249BB691343CB6006E0204BB2
:10112C00DA68BB69DB431E491340CB603B685B68E4
:10113C0003F40033002B06D0194B5A681849BB69CD
:10114C0013434B6006E0164B5A68BB69DB431449EA
:10115C0013404B603B685B6803F48033002B21D059
:10116C000F4B1A680E49BB6913430B6021E000BF9B
:10117C00000032100000311000002210000021107D
:10118C00000012100000111000100240000001407D
:10119C0000080140000C0140001001400014014007
:1011AC00000401400B4B1A68BB69DB43094913402F
:1011BC000B607B6A01337B623B681A687B6A22FA9C
:1011CC0003F3002B7FF48EAE00BF00BF2C37BD465F
:1011DC0080BC70470004014080B483B000AF7860DD
:1011EC000B467B8013467B707B78002B03D07A8870
:1011FC007B681A6103E07B881A047B681A6100BF64
:10120C000C37BD4680BC704780B485B000AF7860A9
:10121C000B467B807B68DB68FB607A88FB6813403D
:10122C001A04FB68D9437B880B401A437B681A610C
:10123C0000BF1437BD4680BC7047000080B586B037
:10124C0000AF78607B68002B01D1012372E27B68D0
:10125C001B6803F00103002B00F08780924B5B6846
:10126C0003F00C03042B0CD08F4B5B6803F00C03C6
:10127C00082B12D18C4B5B6803F48033B3F5803FA1
:10128C000BD1894B1B6803F40033002B6CD07B68AB
:10129C005B68002B68D101234CE27B685B68B3F57B
:1012AC00803F06D1804B1B687F4A43F48033136028
:1012BC002EE07B685B68002B0CD17B4B1B687A4A59
:1012CC0023F480331360784B1B68774A23F4802314
:1012DC0013601DE07B685B68B3F5A02F0CD1724BDB
:1012EC001B68714A43F4802313606F4B1B686E4A72
:1012FC0043F4803313600BE06B4B1B686A4A23F496
:10130C0080331360684B1B68674A23F48023136097
:10131C007B685B68002B13D0FFF7C8FC386108E0D2
:10132C00FFF7C4FC02463B69D31A642B01D9032393
:10133C0000E25D4B1B6803F40033002BF0D014E08B
:10134C00FFF7B4FC386108E0FFF7B0FC02463B69DC
:10135C00D31A642B01D90323ECE1534B1B6803F420
:10136C000033002BF0D100E000BF7B681B6803F05A
:10137C000203002B63D04C4B5B6803F00C03002B77
:10138C000BD0494B5B6803F00C03082B1CD1464B6C
:10139C005B6803F48033002B16D1434B1B6803F0BE
:1013AC000203002B05D07B681B69012B01D00123A4
:1013BC00C0E13D4B1B6823F0F8027B685B69DB00E6
:1013CC00394913430B603AE07B681B69002B20D032
:1013DC00364B01221A60FFF769FC386108E0FFF711
:1013EC0065FC02463B69D31A022B01D90323A1E108
:1013FC002D4B1B6803F00203002BF0D02A4B1B680B
:10140C0023F0F8027B685B69DB00274913430B6010
:10141C0015E0264B00221A60FFF748FC386108E003
:10142C00FFF744FC02463B69D31A022B01D9032374
:10143C0080E11D4B1B6803F00203002BF0D17B688D
:10144C001B6803F00803002B3AD07B689B69002BC8
:10145C0019D0174B01221A60FFF728FC386108E0FD
:10146C00FFF724FC02463B69D31A022B01D9032354
:10147C0060E10D4B5B6A03F00203002BF0D00120FE
:10148C0000F0CEFA1CE00A4B00221A60FFF70EFCAB
:10149C0038610FE0FFF70AFC02463B69D31A022BB6
:1014AC0008D9032346E100BF00100240000042426D
:1014BC0080044242924B5B6A03F00203002BE9D199
:1014CC007B681B6803F00403002B00F0A68000234C
:1014DC00FB758B4BDB6903F08053002B0DD1884BD4
:1014EC00DB69874A43F08053D361854BDB6903F09A
:1014FC008053BB60BB680123FB75824B1B6803F4F4
:10150C008073002B18D17F4B1B687E4A43F4807389
:10151C001360FFF7CBFB386108E0FFF7C7FB02460F
:10152C003B69D31A642B01D9032303E1754B1B6868
:10153C0003F48073002BF0D07B68DB68012B06D1A1
:10154C006F4B1B6A6E4A43F0010313622DE07B68FC
:10155C00DB68002B0CD16A4B1B6A694A23F0010330
:10156C001362674B1B6A664A23F0040313621CE088
:10157C007B68DB68052B0CD1614B1B6A604A43F01E
:10158C00040313625E4B1B6A5D4A43F00103136252
:10159C000BE05B4B1B6A5A4A23F001031362584B56
:1015AC001B6A574A23F0040313627B68DB68002B29
:1015BC0015D0FFF77BFB38610AE0FFF777FB02469B
:1015CC003B69D31A41F28832934201D90323B1E02B
:1015DC004B4B1B6A03F00203002BEED014E0FFF719
:1015EC0065FB38610AE0FFF761FB02463B69D31AE1
:1015FC0041F28832934201D903239BE0404B1B6A92
:10160C0003F00203002BEED1FB7D012B05D13C4BEB
:10161C00DB693B4A23F08053D3617B68DB69002B89
:10162C0000F08780364B5B6803F00C03082B61D00D
:10163C007B68DB69022B46D1334B00221A60FFF723
:10164C0035FB386108E0FFF731FB02463B69D31AE2
:10165C00022B01D903236DE0294B1B6803F00073A7
:10166C00002BF0D17B681B6AB3F5803F08D1244B6B
:10167C005B6823F400327B689B68214913434B6001
:10168C001F4B5B6823F474127B68196A7B685B6A76
:10169C000B431B4913434B601B4B01221A60FFF792
:1016AC0005FB386108E0FFF701FB02463B69D31AE2
:1016BC00022B01D903233DE0114B1B6803F000738F
:1016CC00002BF0D035E0104B00221A60FFF7EEFA39
:1016DC00386108E0FFF7EAFA02463B69D31A022B9D
:1016EC0001D9032326E0064B1B6803F00073002B83
:1016FC00F0D11EE07B68DB69012B07D1012319E0D7
:10170C000010024000700040600042420B4B5B68CE
:10171C00FB60FB6803F480327B681B6A9A4206D13B
:10172C00FB6803F470127B685B6A9A4201D0012358
:10173C0000E0002318461837BD4680BD001002405B
:10174C0080B584B000AF786039607B68002B01D124
:10175C000123D0E06A4B1B6803F007033A689A42F6
:10176C0010D9674B1B6823F0070265493B6813438C
:10177C000B60634B1B6803F007033A689A4201D075
:10178C000123B8E07B681B6803F00203002B20D018
:10179C007B681B6803F00403002B05D0594B5B6876
:1017AC00584A43F4E06353607B681B6803F00803FA
:1017BC00002B05D0534B5B68524A43F46053536083
:1017CC00504B5B6823F0F0027B689B684D491343D8
:1017DC004B607B681B6803F00103002B40D07B68D7
:1017EC005B68012B07D1474B1B6803F40033002BBC
:1017FC0015D101237FE07B685B68022B07D1414B3D
:10180C001B6803F00073002B09D1012373E03D4BDF
:10181C001B6803F00203002B01D101236BE0394B51
:10182C005B6823F003027B685B68364913434B60AB
:10183C00FFF73CFAF8600AE0FFF738FA0246FB685B
:10184C00D31A41F28832934201D9032353E02D4B32
:10185C005B6803F00C027B685B689B009A42EBD1DF
:10186C00274B1B6803F007033A689A4210D2244BAB
:10187C001B6823F0070222493B6813430B60204B83
:10188C001B6803F007033A689A4201D0012332E047
:10189C007B681B6803F00403002B08D0194B5B68B2
:1018AC0023F4E0627B68DB68164913434B607B686A
:1018BC001B6803F00803002B09D0124B5B6823F460
:1018CC0060527B681B69DB000E4913434B6000F0D0
:1018DC0021F802460B4B5B681B0903F00F030A4906
:1018EC00CB5C22FA03F3094A1360094B1B681846B8
:1018FC00FFF79AF9002318461037BD4680BD00BF8C
:10190C0000200240001002400838000800000020AF
:10191C000400002080B487B000AF0023FB600023DC
:10192C00BB6000237B6100237B6000233B611E4B6B
:10193C005B68FB60FB6803F00C03042B02D0082BE4
:10194C0003D027E0194B3B6127E0FB689B0C03F0AD
:10195C000F03174AD35C7B60FB6803F48033002BC6
:10196C0010D0114B5B685B0C03F00103114AD35C84
:10197C00BB607B680D4A03FB02F2BB68B2FBF3F35E
:10198C007B6104E07B680C4A02FB03F37B617B699F
:10199C003B6102E0054B3B6100BF3B6918461C37BD
:1019AC00BD4680BC704700BF0010024000127A0098
:1019BC00203800083038000800093D0080B400AF22
:1019CC00024B1B681846BD4680BC704700000020C7
:1019DC0080B500AFFFF7F2FF0246054B5B681B0AB0
:1019EC0003F007030349CB5C22FA03F3184680BDCE
:1019FC00001002401838000880B500AFFFF7DEFF7A
:101A0C000246054B5B68DB0A03F007030349CB5C1A
:101A1C0022FA03F3184680BD001002401838000863
:101A2C0080B485B000AF78600A4B1B680A4AA2FBF1
:101A3C0003235B0A7A6802FB03F3FB6000BFFB68BD
:101A4C005A1EFA60002BF9D100BF00BF1437BD46F7
:101A5C0080BC704700000020D34D621080B582B06E
:101A6C0000AF78607B68002B01D1012376E07B68A6
:101A7C005B6A002B08D17B685B68B3F5827F09D069
:101A8C007B680022DA6105E07B6800221A617B68C2
:101A9C0000225A617B6800229A627B6893F851306D
:101AAC00DBB2002B06D17B68002283F850207868CB
:101ABC00FEF732FF7B68022283F851207B681B689B
:101ACC001A687B681B6822F040021A607B685B68AE
:101ADC0003F482727B689B6803F404431A437B68AB
:101AEC00DB6803F400631A437B681B6903F0020391
:101AFC001A437B685B6903F001031A437B689B699B
:101B0C0003F400731A437B68DB6903F038031A4350
:101B1C007B681B6A03F0800342EA03017B689B6AC3
:101B2C0003F400527B681B680A431A607B689B694C
:101B3C001A0C7B681B6802F004025A607B681B68F5
:101B4C00DA697B681B6822F40062DA617B68002228
:101B5C005A657B68012283F8512000231846083708
:101B6C00BD4680BD80B588B000AFF860B9603B6001
:101B7C001346FB80FFF79AF8F861FB887B83FB68C0
:101B8C0093F85130DBB2012B01D002232AE1BB6860
:101B9C00002B02D0FB88002B01D1012322E1FB6832
:101BAC0093F85030012B01D102231BE1FB68012279
:101BBC0083F85020FB68032283F85120FB68002235
:101BCC005A65FB68BA681A63FB68FA889A86FB68E0
:101BDC00FA88DA86FB6800229A63FB6800229A87EF
:101BEC00FB680022DA87FB6800225A64FB6800223B
:101BFC001A64FB689B68B3F5004F0FD1FB681B6838
:101C0C001A68FB681B6822F040021A60FB681B68AC
:101C1C001A68FB681B6842F480421A60FB681B68F8
:101C2C001B6803F04003402B07D0FB681B681A6845
:101C3C00FB681B6842F040021A60FB68DB68B3F576
:101C4C00006F52D1FB685B68002B02D07B8B012BA1
:101C5C0045D1FB681B6B1A88FB681B68DA60FB6854
:101C6C001B6B9A1CFB681A63FB68DB8E9BB2013BF7
:101C7C009AB2FB68DA8632E0FB681B689B6803F05B
:101C8C000203022B12D1FB681B6B1A88FB681B68C2
:101C9C00DA60FB681B6B9A1CFB681A63FB68DB8EB3
:101CAC009BB2013B9AB2FB68DA8618E0FEF7FEFFA6
:101CBC000246FB69D31A3A689A4203D83B68B3F1DF
:101CCC00FF3F02D13B68002B09D1FB68012283F84E
:101CDC005120FB68002283F85020032382E0FB682C
:101CEC00DB8E9BB2002BC7D153E0FB685B68002BEB
:101CFC0002D07B8B012B47D1FB681A6BFB681B68EE
:101D0C000C3312781A70FB681B6B5A1CFB681A6335
:101D1C00FB68DB8E9BB2013B9AB2FB68DA8633E040
:101D2C00FB681B689B6803F00203022B13D1FB6852
:101D3C001A6BFB681B680C3312781A70FB681B6BF0
:101D4C005A1CFB681A63FB68DB8E9BB2013B9AB290
:101D5C00FB68DA8618E0FEF7A9FF0246FB69D31A86
:101D6C003A689A4203D83B68B3F1FF3F02D13B6813
:101D7C00002B09D1FB68012283F85120FB6800225B
:101D8C0083F8502003232DE0FB68DB8E9BB2002BE5
:101D9C00C6D1FA693968F86800F05AFA0346002B84
:101DAC0002D0FB6820225A65FB689B68002B0AD185
:101DBC0000237B61FB681B68DB687B61FB681B682D
:101DCC009B687B617B69FB68012283F85120FB686F
:101DDC00002283F85020FB685B6D002B01D001239F
:101DEC0000E0002318462037BD4680BD80B58AB080
:101DFC0000AFF860B9607A607B8001237B62FEF7EC
:101E0C0055FF3862FB6893F85130FB77FB685B68D1
:101E1C00BB617B88FB82FB7F012B0CD0BB69B3F5CC
:101E2C00827F06D1FB689B68002B02D1FB7F042BC1
:101E3C0001D002237FE1BB68002B05D07B68002B0F
:101E4C0002D07B88002B01D1012374E1FB6893F84D
:101E5C005030012B01D102236DE1FB68012283F884
:101E6C005020FB6893F85130DBB2042B03D0FB6895
:101E7C00052283F85120FB6800225A65FB687A68BA
:101E8C009A63FB687A88DA87FB687A889A87FB689A
:101E9C00BA681A63FB687A88DA86FB687A889A864D
:101EAC00FB6800221A64FB6800225A64FB681B68FA
:101EBC001B6803F04003402B07D0FB681B681A68B3
:101ECC00FB681B6842F040021A60FB68DB68B3F5E4
:101EDC00006F7ED1FB685B68002B02D0FB8A012B64
:101EEC006CD1FB681B6B1A88FB681B68DA60FB689B
:101EFC001B6B9A1CFB681A63FB68DB8E9BB2013B65
:101F0C009AB2FB68DA8659E0FB681B689B6803F0A1
:101F1C000203022B1BD1FB68DB8E9BB2002B16D06D
:101F2C007B6A012B13D1FB681B6B1A88FB681B683F
:101F3C00DA60FB681B6B9A1CFB681A63FB68DB8E10
:101F4C009BB2013B9AB2FB68DA8600237B62FB688A
:101F5C001B689B6803F00103012B19D1FB68DB8F15
:101F6C009BB2002B14D0FB681B68DA68FB689B6B78
:101F7C0092B21A80FB689B6B9A1CFB689A63FB6895
:101F8C00DB8F9BB2013B9AB2FB68DA8701237B6241
:101F9C00FEF78CFE02463B6AD31A3A6B9A420DD876
:101FAC003B6BB3F1FF3F09D0FB68012283F8512052
:101FBC00FB68002283F850200323BCE0FB68DB8E17
:101FCC009BB2002BA0D1FB68DB8F9BB2002B9BD16B
:101FDC0082E0FB685B68002B02D0FB8A012B71D17D
:101FEC00FB681A6BFB681B680C3312781A70FB6861
:101FFC001B6B5A1CFB681A63FB68DB8E9BB2013BA4
:10200C009AB2FB68DA865DE0FB681B689B6803F09C
:10201C000203022B1CD1FB68DB8E9BB2002B17D06A
:10202C007B6A012B14D1FB681A6BFB681B680C33A1
:10203C0012781A70FB681B6B5A1CFB681A63FB68DE
:10204C00DB8E9BB2013B9AB2FB68DA8600237B6283
:10205C00FB681B689B6803F00103012B19D1FB681B
:10206C00DB8F9BB2002B14D0FB681B68DA68FB6813
:10207C009B6BD2B21A70FB689B6B5A1CFB689A6301
:10208C00FB68DB8F9BB2013B9AB2FB68DA870123BA
:10209C007B62FEF70BFE02463B6AD31A3A6B9A42FE
:1020AC0003D83B6BB3F1FF3F02D13B6B002B09D143
:1020BC00FB68012283F85120FB68002283F8502032
:1020CC00032338E0FB68DB8E9BB2002B9CD1FB68B2
:1020DC00DB8F9BB2002B97D13A6A396BF86800F012
:1020EC00B7F80346002B08D0FB6820225A65FB6822
:1020FC00002283F8502001231DE0FB689B68002B15
:10210C000AD100233B61FB681B68DB683B61FB6801
:10211C001B689B683B613B69FB68012283F851207B
:10212C00FB68002283F85020FB685B6D002B01D00C
:10213C00012300E0002318462837BD4680BD00006F
:10214C0080B588B000AFF860B9603B601346FB7196
:10215C00FEF7ACFD0246BB6A9B1A3A681344FB615E
:10216C00FEF7A4FDB861394B1B685B011B0DFA69C6
:10217C0002FB03F37B6154E03B68B3F1FF3F50D0AB
:10218C00FEF794FD0246BB69D31AFA699A4202D94A
:10219C00FB69002B3DD1FB681B685A68FB681B6808
:1021AC0022F0E0025A60FB685B68B3F5827F11D1C4
:1021BC00FB689B68B3F5004F04D0FB689B68B3F5D4
:1021CC00806F07D1FB681B681A68FB681B6822F0DC
:1021DC0040021A60FB689B6AB3F5005F0FD1FB6885
:1021EC001B681A68FB681B6822F400521A60FB68B3
:1021FC001B681A68FB681B6842F400521A60FB6883
:10220C00012283F85120FB68002283F8502003231D
:10221C0017E07B69002B01D10023FB617B69013B3B
:10222C007B61FB681B689A68BB681340BA689A426A
:10223C000CBF01230023DBB21A46FB799A429BD1D7
:10224C00002318462037BD4680BD00BF000000208B
:10225C0080B586B002AFF860B9607A607B68009395
:10226C00BB6801220221F868FFF76AFF0346002BC6
:10227C0007D0FB685B6D43F02002FB685A650323B3
:10228C0013E07B680093BB6800228021F868FFF79D
:10229C0057FF0346002B07D0FB685B6D43F0200211
:1022AC00FB685A65032300E0002318461037BD462F
:1022BC0080BD80B582B000AF78607B68002B01D107
:1022CC00012342E07B6893F84130DBB2002B06D14E
:1022DC007B68002283F840207868FEF767FB7B68F8
:1022EC00242283F841207B681B68DA687B681B68B2
:1022FC0022F40052DA60786800F072F97B681B688F
:10230C001A697B681B6822F490421A617B681B680F
:10231C005A697B681B6822F02A025A617B681B6829
:10232C00DA687B681B6842F40052DA607B68002232
:10233C005A647B68202283F841207B68202283F832
:10234C0042207B6800225A63002318460837BD469A
:10235C0080BD80B58AB002AFF860B9603B601346AF
:10236C00FB8000237B61FB6893F84130DBB2202BB0
:10237C0075D1BB68002B02D0FB88002B01D1012347
:10238C006EE0FB6800225A64FB68212283F841202E
:10239C00FEF78CFC7861FB68FA889A84FB68FA88F3
:1023AC00DA84FB689B68B3F5805F08D1FB681B6916
:1023BC00002B04D10023FB61BB68BB6103E0BB684D
:1023CC00FB610023BB612EE03B6800937B6900221C
:1023DC008021F86800F048F80346002B05D0FB6814
:1023EC00202283F8412003233AE0FB69002B0BD118
:1023FC00BB691B881A46FB681B68C2F308025A604B
:10240C00BB690233BB6107E0FB691A78FB681B6888
:10241C005A60FB690133FB61FB68DB8C9BB2013BAF
:10242C009AB2FB68DA84FB68DB8C9BB2002BCBD1B5
:10243C003B6800937B6900224021F86800F014F897
:10244C000346002B05D0FB68202283F84120032390
:10245C0006E0FB68202283F84120002300E00223E1
:10246C0018462037BD4680BD80B586B000AFF860F9
:10247C00B9603B601346FB713BE03B6AB3F1FF3F35
:10248C0037D0FEF713FC02463B68D31A3A6A9A42DD
:10249C0002D33B6A002B01D103233AE0FB681B6893
:1024AC00DB6803F00403002B23D0BB68802B20D007
:1024BC00BB68402B1DD0FB681B681B6803F008032E
:1024CC00082B16D100237B61FB681B681B687B61A2
:1024DC00FB681B685B687B617B69F86800F01DF822
:1024EC00FB6808225A64FB68002283F84020012311
:1024FC000FE0FB681B681A68BB681340BA689A4205
:10250C000CBF01230023DBB21A46FB799A42B4D0EC
:10251C00002318461837BD4680BD80B495B000AF77
:10252C0078607B681B680C337B637B6B53E8003FE4
:10253C003B633B6B23F49073FB647B681B680C332D
:10254C00FA6C3A64FB63F96B3A6C41E80023BB63A9
:10255C00BB6B002BE5D17B681B6814333B623B6A79
:10256C0053E8003FFB61FB6923F00103BB647B680C
:10257C001B681433BA6CFA62BB62B96AFA6A41E836
:10258C0000237B627B6A002BE5D17B681B6B012BE4
:10259C0019D17B681B680C33FB60FB6853E8003F68
:1025AC00BB60BB6823F010037B647B681B680C3337
:1025BC007A6CBA617B617969BA6941E800233B6145
:1025CC003B69002BE5D17B68202283F842207B6895
:1025DC0000221A6300BF5437BD4680BC7047000010
:1025EC0080B584B000AF78607B681B681B6923F4EE
:1025FC0040517B68DA687B681B680A431A617B6808
:10260C009A687B681B691A437B685B691343BB60E0
:10261C007B681B68DB6823F4B05323F00C037A68E7
:10262C001268B9680B43D3607B681B685B6923F441
:10263C0040717B689A697B681B680A435A617B68A6
:10264C001B682C4A934203D1FFF7D6F9F86002E0DD
:10265C00FFF7BEF9F860FA6813469B0013449A0022
:10266C001A447B685B689B00B2FBF3F3224AA2FB23
:10267C0003235B091901FA6813469B0013449A0063
:10268C001A447B685B689B00B2FBF3F21A4BA3FB0A
:10269C0002035B09642000FB03F3D31A1B013233E2
:1026AC00154AA2FB03235B0903F0F0031944FA68F3
:1026BC0013469B0013449A001A447B685B689B008A
:1026CC00B2FBF3F20C4BA3FB02035B09642000FB8F
:1026DC0003F3D31A1B013233074AA2FB03235B0912
:1026EC0003F00F027B681B680A449A6000BF103726
:1026FC00BD4680BD003801401F85EB51002310B54D
:10270C000446C0E90033C0E9043383608181436629
:10271C00C2818361194608225C3000F009FA0D4B26
:10272C00246263620C4BA3620C4BE3620C4B23637D
:10273C000C4B9C4206D003F16802944202D0D03379
:10274C009C4205D104F15800BDE8104000F068BA75
:10275C0010BD00BF6D2900088F290008C72900088B
:10276C00EB2900082C010020024A0349034800F021
:10277C0069B800BF0C000020C13400081C00002008
:10278C0041680C4B10B59942044601D000F092FE02
:10279C00A168094B994202D0204600F08BFEE168FB
:1027AC00064B994204D02046BDE8104000F082BE92
:1027BC0010BD00BF2C01002094010020FC01002062
:1027CC0010B50B4B0B4C0C4A20461A60042100220E
:1027DC00FFF794FF04F1680001220921FFF78EFF37
:1027EC0004F1D0000222BDE810401221FFF786BF91
:1027FC00640200202C01002075270008014800F01D
:10280C0010BA00BF6D020020014800F00BBA00BFE7
:10281C006D02002010B50446FFF7F0FF236A1BB1D0
:10282C00BDE81040FFF7F0BF044B2362044B1B685C
:10283C00002BF5D1FFF7C4FFF2E700BF8D2700088E
:10284C00640200202DE9F84307468846144600260A
:10285C00D4E90195B9F1010905D52468002CF7D10B
:10286C003046BDE8F883AB89012B07D9B5F90E309A
:10287C00013303D029463846C04706436835E9E79B
:10288C000FB407B5064904AB086853F8042B8168EC
:10289C00019300F0E7FA03B05DF804EB04B0704765
:1028AC0018000020036A70B505460E4684680BB903
:1028BC00FFF7B0FF636EDB0705D4A389980502D43C
:1028CC00A06D00F0AEF9A389190702D52369002B7E
:1028DC0035D12146284600F0C5F880B34FF0FF35BE
:1028EC00636EDA0705D4A3899B0502D4A06D00F0B2
:1028FC0099F9284670BD002B04DAA2699A4217DCBC
:10290C000A2915D023685A1C22601970A36816F87E
:10291C00011F013BA3600029EDD1002B11DA2246E7
:10292C000A21284600F05FF80130D7D00A25D7E7F6
:10293C002246284600F057F80130E7D1CEE7013E99
:10294C00E4E723685A1C22600A221A70EEE70000A2
:10295C00024B01461868FFF7A5BF00BF1800002006
:10296C0010B50C46B1F90E1000F00CF90028ABBFF5
:10297C00636DA3891B1823F48053ACBF6365A381DB
:10298C0010BD2DE9F0411F468B890546DB050C4631
:10299C00164605D502230022B1F90E1000F0E0F81E
:1029AC00A389324623F48053A38128463B46B4F9CD
:1029BC000E10BDE8F04100F0F7B810B50C46B1F9B7
:1029CC000E1000F0CDF8431CA38915BF606523F4ED
:1029DC00805343F48053A38118BFA38110BDB1F978
:1029EC000E1000F0ADB8F8B50E461446054618B1F9
:1029FC00036A0BB9FFF70EFFA369A360A3891A073B
:102A0C0001D5236943B92146284600F02BF818B1AB
:102A1C004FF0FF373846F8BD23682269F6B2981A92
:102A2C0063693746834205DC2146284600F042FDA7
:102A3C000028EDD1A368013BA36023685A1C2260D7
:102A4C001E706269431C9A4204D0A389DB07E1D54E
:102A5C000A2EDFD12146284600F02CFD0028D9D0C3
:102A6C00D6E7000038B5294B054618680C4618B156
:102A7C00036A0BB9FFF7CEFEB4F90C30190722D458
:102A8C00DA0607D409222A6043F040034FF0FF30E6
:102A9C00A38133E0580712D5616B41B104F14403B3
:102AAC00994202D0284600F0BFF800236363A38943
:102ABC0023F02403A3810023636023692360A3898B
:102ACC0043F00803A38123694BB9A38903F4207352
:102ADC00B3F5007F03D02146284600F038FDB4F949
:102AEC000C3013F001020AD00022A260626952423B
:102AFC00A261226942B913F08000C5D138BD990793
:102B0C0058BF6269A260F4E70020F7E718000020C4
:102B1C0010B501390244904201D1002005E0037840
:102B2C0011F8014FA34201D0181B10BD0130F2E780
:102B3C0003460244934200D1704703F8011BF9E7A6
:102B4C0038B50023054D044608462B60FDF7C3FF3E
:102B5C00431C02D12B6803B1236038BD68020020EE
:102B6C0038B50446084611460022054D2A601A461F
:102B7C00FDF7D5FF431C02D12B6803B1236038BD90
:102B8C006802002038B50446084611460022054D5F
:102B9C002A601A46FDF782FF431C02D12B6803B151
:102BAC00236038BD6802002038B50446084611463B
:102BBC000022054D2A601A46FDF7DEFB431C02D1AC
:102BCC002B6803B1236038BD68020020014B1868E4
:102BDC00704700BF1800002070B500260C4D0D4C3E
:102BEC00641BA410A64209D100F02EFD00260A4D4C
:102BFC000A4C641BA410A64205D170BD55F8043BC9
:102C0C0098470136EEE755F8043B98470136F2E752
:102C1C006838000868380008683800086C38000804
:102C2C00704770477047000038B50546002940D002
:102C3C0051F8043C0C1F002BB8BFE41800F0DEF870
:102C4C001C4A136833B9636014602846BDE83840E9
:102C5C0000F0DAB8A34208D9206821188B4201BFD2
:102C6C0019685B6809182160EDE71A465B680BB1BF
:102C7C00A342FAD911685018A0420BD12068014424
:102C8C00501883421160E0D118685B6808441060EA
:102C9C005360DAE702D90C232B60D6E720682118A1
:102CAC008B4201BF19685B6809182160636054602E
:102CBC00CBE738BD7402002070B50F4E0C4631685E
:102CCC00054611B900F0A2FC30602146284600F000
:102CDC009DFC431C03D14FF0FF34204670BDC41C37
:102CEC0024F00304A042F8D0211A284600F08EFCF0
:102CFC000130F2D1EFE700BF700200202DE9F8435C
:102D0C00CD1C25F0030508350C2D38BF0C25002DE6
:102D1C00064601DBA94204D90C2333600020BDE830
:102D2C00F883DFF8D48000F069F8D8F800301C463E
:102D3C0044BB29463046FFF7BFFF431C044658D11D
:102D4C00D8F800402746002F43D1002C4BD02368E5
:102D5C003946304604EB030900F058FC814542D15A
:102D6C00216830466D1A2946FFF7A6FF01303AD08C
:102D7C0023682B442360D8F800305A6862BBC8F82B
:102D8C0000700FE02268521B20D40B2A17D961194E
:102D9C00A342256018BF5960636808BFC8F80010CB
:102DAC0062514B60304600F02FF804F10B00231DEC
:102DBC0020F00700C21A1CBF1B1AA350AFE76268B1
:102DCC00A3420CBFC8F800205A60EBE723466468A6
:102DDC00AEE73C467F68B6E71A465B68A342FBD178
:102DEC0000235360DEE70C233046336000F00CF810
:102DFC0094E70560D6E700BF740200200148FFF796
:102E0C0010BF00BF6C0200200148FFF70BBF00BFD2
:102E1C006C020020936810B4013B002B936007DA1E
:102E2C009469A34201DB0A2902D110BCFFF7DBBD78
:102E3C001368581C10601970084610BC7047F8B520
:102E4C0006460F461446D518AC4201D1002007E0C7
:102E5C003A46304614F8011BFFF7DCFF431CF3D154
:102E6C00F8BD00002DE9F04F0D4614469846064675
:102E7C009DB018B1036A0BB9FFF7CCFC6B6ED90788
:102E8C0005D4AB899A0502D4A86DFFF7CAFEAB89AD
:102E9C001B0701D52B699BB929463046FFF7E2FD8C
:102EAC0070B16B6EDC0704D54FF0FF301DB0BDE880
:102EBC00F08FAB899805F7D4A86DFFF7B3FEF3E755
:102ECC000023099320238DF8293030234FF001097A
:102EDC00CDF80C80DFF8A8818DF82A3023469A466D
:102EEC0013F8012B0AB1252AF9D1BAEB040B0BD03C
:102EFC005B46224629463046FFF7A1FF013000F021
:102F0C00A780099A5A4409929AF80030002B00F0D5
:102F1C009F8000234FF0FF32CDE905230AF1010A0F
:102F2C00049307938DF853301A935446052214F8E2
:102F3C00011B534800F07AFB049AD8B9D10644BF60
:102F4C0020238DF85330130744BF2B238DF85330B7
:102F5C009AF800302A2B15D0544600204FF00A0C5A
:102F6C00079A214611F8013B303B092B4BD9B0B1E4
:102F7C00079214E0A0EB080309FA03F31343A246EB
:102F8C000493D2E7039B191D1B680391002BBBBF55
:102F9C005B4242F0020207930793B8BF0492237876
:102FAC002E2B0AD163782A2B32D1039B02341A1DA3
:102FBC001B68039243EAE3730593DFF8C8A003226E
:102FCC005046217800F032FB38B14022049BA0EB34
:102FDC000A00824013430134049314F8011B0622A7
:102FEC0029488DF8281000F021FB00283FD0274BF2
:102FFC001BBB039B073323F0070308330393099B85
:10300C003B4409936AE70C4601200CFB0232A8E70B
:10301C0000234FF00A0C194601340593204610F892
:10302C00012B303A092A03D9002BC6D00591C4E7ED
:10303C00044601230CFB0121F0E703AB00932A4665
:10304C003046134B04A9AFF300800746781CD6D149
:10305C006B6ED90705D4AB899A0502D4A86DFFF71E
:10306C00E1FDAB895B063FF51FAF09981EE703AB8B
:10307C0000932A463046064B04A900F07DF8E4E79D
:10308C0032380008383800083C38000800000000CE
:10309C004B2E00082DE9F047164698468A680B69B6
:1030AC0007469342B8BF1346336091F843200C4651
:1030BC00DDF820900AB1013333602368990642BFD2
:1030CC00336802333360256815F0060506D104F128
:1030DC00190AE36832689B1AAB422BDC94F8433034
:1030EC002268003B18BF0123920630D44146384673
:1030FC0004F14302C847013023D02368226903F04E
:10310C000603042B14BF002533684FF0000608BFDC
:10311C00E56804F11A0408BFED1A54F8123C08BF14
:10312C0025EAE5759342C4BF9B1AED18B5421AD136
:10313C00002008E00123524641463846C84701307A
:10314C0003D14FF0FF30BDE8F0870135C1E73020E7
:10315C00E11881F843005A1C94F8451022440233BC
:10316C0082F84310C2E70123224641463846C8473D
:10317C000130E6D00136D9E72DE9FF470F7E9146A5
:10318C00782F80460C469A460C9E01F1430207D8D4
:10319C00622F0AD8002F00F0D180582F00F0B88091
:1031AC0004F1420684F842703AE0A7F16303152B50
:1031BC00F6D801A151F823F01D3200083132000875
:1031CC00AD310008AD310008AD310008AD3100085B
:1031DC0031320008AD310008AD310008AD310008C6
:1031EC00AD3100082F3300085B320008E9320008CB
:1031FC00AD310008AD31000851330008AD31000885
:10320C005B320008AD310008AD310008F132000826
:10321C0033681A1D1B68326004F1420684F8423090
:10322C0001239CE033682068191D3160060601D526
:10323C001D6803E04506FBD5B3F90050002D03DAF9
:10324C002D236D4284F843300A23584811E021683D
:10325C003368080653F8045B02D4490648BFADB284
:10326C006F2F336014BF0A2308235048002184F8C1
:10327C0043106668002EA66005DB21682E4321F002
:10328C00040121604BD01646B5FBF3F103FB11573B
:10329C00C75D06F8017D2F46BB420D46F4D9082BBD
:1032AC000BD12368DF0708D5236961689942DEBF1B
:1032BC00302306F8013C06F1FF36921B22614B4687
:1032CC0021464046CDF800A003AAFFF7E3FE0130EB
:1032DC004AD14FF0FF3004B0BDE8F087236843F0CB
:1032EC00200323607827324884F8457023683168BE
:1032FC001F0651F8045B02D45F0648BFADB23160C3
:10330C00D90744BF43F0200323601DB11023ADE760
:10331C002648E9E7236823F020032360F6E71646E6
:10332C00BDE733682568181D616930602E061B687F
:10333C0001D5196002E06806FBD5198000231646FA
:10334C002361BCE7336800211A1D32601E68626875
:10335C00304600F06BF908B1801B60606368236134
:10336C00002384F84330AAE7324649464046236995
:10337C00D0470130ADD023689B0713D4E068039B82
:10338C009842B8BF1846A6E7012332464946404644
:10339C00D04701309DD00135E36803995B1AAB42ED
:1033AC00F2DCEBE7002504F11906F5E743380008D9
:1033BC0054380008B1F90C20F8B5160705460C4630
:1033CC0054D44B68002B02DC0B6C002B48DDE66AF6
:1033DC00002E45D0002312F480522F68216A2B60F6
:1033EC0030D0626DA389590705D56368D21A636B17
:1033FC000BB1236CD21A00232846E66A216AB04727
:10340C00431CA38906D129681D292BD8284ACA40F8
:10341C00D60727D5002262602269D904226004D520
:10342C00421C01D12B6803B96065616B2F60B9B187
:10343C0004F14403994202D02846FFF7F5FB002320
:10344C0063630DE001232846B0470246501CC9D1E6
:10345C002B68002BC6D01D2B01D0162B1DD12F6035
:10346C00002021E043F040031BB21AE00F69002F4B
:10347C00F6D0930718BF00230E6808BF4B69F61BE4
:10348C000F608B60002EEBDD33463A462846216AEE
:10349C00D4F828C0E047002807DCB4F90C3043F01E
:1034AC0040034FF0FF30A381F8BD0744361AE9E71B
:1034BC000100402038B50B6905460C4613B90025B0
:1034CC00284638BD18B1036A0BB9FFF7A3F9B4F954
:1034DC000C30002BF3D0626ED00704D4990502D4C3
:1034EC00A06DFFF79EFB28462146FFF763FF636E36
:1034FC000546DA07E4D4A3899B05E1D4A06DFFF758
:10350C0091FBDDE770B50C46B1F90E10154600299C
:10351C001E4696B00CDAA389002113F0800F14BF5D
:10352C0040234FF48063002031602B6016B070BDD7
:10353C006A4600F049F80028EDDB019901F470416E
:10354C00A1F50053594259414FF48063EBE78B8945
:10355C00F7B59D0706460C4607D504F147032360D3
:10356C0023610123636103B0F0BD6A4601ABFFF731
:10357C00C9FF009F054639463046FFF7BFFB48B9E7
:10358C00B4F90C309A05EED423F0030343F0020394
:10359C00A381E2E7A389C4E9040743F08003A38174
:1035AC00019B20605BB13046B4F90E1000F01EF8A0
:1035BC0028B1A38923F0030343F00103A381A3895A
:1035CC001D43A581CFE7000038B50023064D044606
:1035DC00084611462B60FDF789FA431C02D12B6873
:1035EC0003B1236038BD00BF6802002038B500234A
:1035FC00054D044608462B60FDF787FA431C02D1A3
:10360C002B6803B1236038BD6802002038B5002355
:10361C00054D044608462B60FDF78EFA431C02D17B
:10362C002B6803B1236038BD68020020034610B537
:10363C00C9B202449342184601D1002003E0047839
:10364C0001338C42F6D110BDF8B500BFF8BC08BCF4
:10365C009E467047F8B500BFF8BC08BC9E46704744
:10366C002D2D2D2D2D2D53746172742D2D2D2D2D51
:10367C002D0D0000466C617368204A45444543207B
:10368C0049443D2025236C580D0A0A0A000000000D
:10369C000D000000536563746F722065726173696D
:1036AC006E672E2E2E0D0000536563746F722065AD
:1036BC007261736564206174203078303030303042
:1036CC00300D0A0A0000000057726974696E672099
:1036DC007465737420646174612E2E2E2E0D00009F
:1036EC0054657374206461746120777269747465B5
:1036FC006E210D0A0A000000526563656976696ED9
:10370C0067207465737420646174612E2E2E2E0DE7
:10371C00000000005265636569766564206461741D
:10372C0061210D0A0A000000535543434553533A97
:10373C002044617461206D617463686573210D00B0
:10374C00526561643A2025730D0A0A0A00000000D4
:10375C004641494C3A2044617461206D69736D6136
:10376C00746368210D0000004578706563746564AE
:10377C003A2025730D0A0A0A000000005365637491
:10378C006F722065726173656420617420307830CB
:10379C0030313030300D0A0A000000002575090068
:1037AC000D0A0A0043757272656E742074696D653A
:1037BC003A20256C7520730D0A00000054686520B2
:1037CC006E616D65206973204B697368616E2C2086
:1037DC004A6167616B697368616E2E0000000000BE
:1037EC0000000000000000000000000000000000CD
:1037FC0000000000000000000000000000000000BD
:10380C000000000001020304060708090000000084
:10381C000102030402030405060708090A0B0C0D38
:10382C000E0F10100102232D302B2000686C4C0061
:10383C0065666745464700303132333435363738A4
:10384C003941424344454600303132333435363702
:0C385C003839616263646566000000009A
:043868003101000822
:04386C000D01000842
:1038700000127A00100000000100000000000000AB
:10388000030000002C0100201C00002000000000AC
:103890002C01002094010020FC0100200000000009
:1038A0000000000000000000000000000000000018
:1038B0000000000000000000000000000000000008
:1038C00000000000000000000000000000000000F8
:0838D0000000000000000000F0
:0400000508000BBD27
:00000001FF
